:1000000019C020C01FC01EC01DC01CC01BC01AC00C
:1000100019C018C017C016C015C014C013C012C034
:1000200011C010C00FC00EC00DC00CC00BC00AC064
:1000300009C008C011241FBECFEFCDBFDFE3DEBF74
:1000400002D020C0DDCF90E088ED84BF90936100A6
:1000500081E080934104809345042FE734E89EE1DA
:10006000215030409040E1F700C0000080934604EA
:100070002FE734E89EE1215030409040E1F700C086
:080080000000E9CFF894FFCF66
:00000001FF
